{
  "contractName": "SmartBricks",
  "abi": [
    {
      "constant": true,
      "inputs": [
        {
          "internalType": "bytes4",
          "name": "interfaceId",
          "type": "bytes4"
        }
      ],
      "name": "supportsInterface",
      "outputs": [
        {
          "internalType": "bool",
          "name": "",
          "type": "bool"
        }
      ],
      "payable": false,
      "stateMutability": "view",
      "type": "function"
    },
    {
      "constant": true,
      "inputs": [],
      "name": "tokenId",
      "outputs": [
        {
          "internalType": "uint256",
          "name": "",
          "type": "uint256"
        }
      ],
      "payable": false,
      "stateMutability": "view",
      "type": "function"
    },
    {
      "inputs": [],
      "payable": false,
      "stateMutability": "nonpayable",
      "type": "constructor"
    },
    {
      "anonymous": false,
      "inputs": [
        {
          "indexed": true,
          "internalType": "address[]",
          "name": "addresses",
          "type": "address[]"
        },
        {
          "indexed": true,
          "internalType": "uint256[]",
          "name": "ints",
          "type": "uint256[]"
        },
        {
          "indexed": true,
          "internalType": "bool[]",
          "name": "bools",
          "type": "bool[]"
        }
      ],
      "name": "CreatePiggy",
      "type": "event"
    },
    {
      "anonymous": false,
      "inputs": [
        {
          "indexed": true,
          "internalType": "address",
          "name": "from",
          "type": "address"
        },
        {
          "indexed": true,
          "internalType": "address",
          "name": "to",
          "type": "address"
        },
        {
          "indexed": true,
          "internalType": "uint256",
          "name": "tokenId",
          "type": "uint256"
        }
      ],
      "name": "TransferPiggy",
      "type": "event"
    },
    {
      "anonymous": false,
      "inputs": [
        {
          "indexed": true,
          "internalType": "address",
          "name": "from",
          "type": "address"
        },
        {
          "indexed": true,
          "internalType": "uint256",
          "name": "tokenId",
          "type": "uint256"
        },
        {
          "indexed": false,
          "internalType": "address",
          "name": "collateralERC",
          "type": "address"
        },
        {
          "indexed": false,
          "internalType": "address",
          "name": "dataResolver",
          "type": "address"
        },
        {
          "indexed": false,
          "internalType": "uint256",
          "name": "reqCollateral",
          "type": "uint256"
        },
        {
          "indexed": false,
          "internalType": "uint256",
          "name": "lotSize",
          "type": "uint256"
        },
        {
          "indexed": false,
          "internalType": "uint256",
          "name": "strikePrice",
          "type": "uint256"
        },
        {
          "indexed": false,
          "internalType": "uint256",
          "name": "expiry",
          "type": "uint256"
        },
        {
          "indexed": false,
          "internalType": "bool",
          "name": "isEuro",
          "type": "bool"
        },
        {
          "indexed": false,
          "internalType": "bool",
          "name": "isPut",
          "type": "bool"
        }
      ],
      "name": "UpdateRFP",
      "type": "event"
    },
    {
      "anonymous": false,
      "inputs": [
        {
          "indexed": true,
          "internalType": "address",
          "name": "from",
          "type": "address"
        },
        {
          "indexed": true,
          "internalType": "uint256",
          "name": "tokenId",
          "type": "uint256"
        },
        {
          "indexed": true,
          "internalType": "bool",
          "name": "RFP",
          "type": "bool"
        }
      ],
      "name": "ReclaimAndBurn",
      "type": "event"
    },
    {
      "anonymous": false,
      "inputs": [
        {
          "indexed": true,
          "internalType": "address",
          "name": "from",
          "type": "address"
        },
        {
          "indexed": true,
          "internalType": "uint256",
          "name": "tokenId",
          "type": "uint256"
        },
        {
          "indexed": false,
          "internalType": "uint256",
          "name": "startPrice",
          "type": "uint256"
        },
        {
          "indexed": false,
          "internalType": "uint256",
          "name": "reservePrice",
          "type": "uint256"
        },
        {
          "indexed": false,
          "internalType": "uint256",
          "name": "auctionLength",
          "type": "uint256"
        },
        {
          "indexed": false,
          "internalType": "uint256",
          "name": "timeStep",
          "type": "uint256"
        },
        {
          "indexed": false,
          "internalType": "uint256",
          "name": "priceStep",
          "type": "uint256"
        }
      ],
      "name": "StartAuction",
      "type": "event"
    },
    {
      "anonymous": false,
      "inputs": [
        {
          "indexed": true,
          "internalType": "address",
          "name": "from",
          "type": "address"
        },
        {
          "indexed": true,
          "internalType": "uint256",
          "name": "tokenId",
          "type": "uint256"
        },
        {
          "indexed": true,
          "internalType": "bool",
          "name": "RFP",
          "type": "bool"
        }
      ],
      "name": "EndAuction",
      "type": "event"
    },
    {
      "anonymous": false,
      "inputs": [
        {
          "indexed": true,
          "internalType": "address",
          "name": "from",
          "type": "address"
        },
        {
          "indexed": true,
          "internalType": "uint256",
          "name": "tokenId",
          "type": "uint256"
        },
        {
          "indexed": false,
          "internalType": "uint256",
          "name": "paidPremium",
          "type": "uint256"
        },
        {
          "indexed": false,
          "internalType": "uint256",
          "name": "change",
          "type": "uint256"
        },
        {
          "indexed": false,
          "internalType": "uint256",
          "name": "auctionPremium",
          "type": "uint256"
        }
      ],
      "name": "SatisfyAuction",
      "type": "event"
    },
    {
      "anonymous": false,
      "inputs": [
        {
          "indexed": true,
          "internalType": "address",
          "name": "feePayer",
          "type": "address"
        },
        {
          "indexed": true,
          "internalType": "uint256",
          "name": "tokenId",
          "type": "uint256"
        },
        {
          "indexed": false,
          "internalType": "uint256",
          "name": "oracleFee",
          "type": "uint256"
        },
        {
          "indexed": false,
          "internalType": "address",
          "name": "dataResolver",
          "type": "address"
        }
      ],
      "name": "RequestSettlementPrice",
      "type": "event"
    },
    {
      "anonymous": false,
      "inputs": [
        {
          "indexed": true,
          "internalType": "address",
          "name": "resolver",
          "type": "address"
        },
        {
          "indexed": true,
          "internalType": "uint256",
          "name": "tokenId",
          "type": "uint256"
        },
        {
          "indexed": true,
          "internalType": "uint256",
          "name": "price",
          "type": "uint256"
        }
      ],
      "name": "OracleReturned",
      "type": "event"
    },
    {
      "anonymous": false,
      "inputs": [
        {
          "indexed": true,
          "internalType": "address",
          "name": "from",
          "type": "address"
        },
        {
          "indexed": true,
          "internalType": "uint256",
          "name": "tokenId",
          "type": "uint256"
        },
        {
          "indexed": true,
          "internalType": "uint256",
          "name": "holderPayout",
          "type": "uint256"
        },
        {
          "indexed": false,
          "internalType": "uint256",
          "name": "writerPayout",
          "type": "uint256"
        }
      ],
      "name": "SettlePiggy",
      "type": "event"
    },
    {
      "anonymous": false,
      "inputs": [
        {
          "indexed": true,
          "internalType": "address",
          "name": "from",
          "type": "address"
        },
        {
          "indexed": true,
          "internalType": "uint256",
          "name": "amount",
          "type": "uint256"
        },
        {
          "indexed": true,
          "internalType": "address",
          "name": "paymentToken",
          "type": "address"
        }
      ],
      "name": "ClaimPayout",
      "type": "event"
    },
    {
      "constant": false,
      "inputs": [
        {
          "internalType": "address",
          "name": "_collateralERC",
          "type": "address"
        },
        {
          "internalType": "address",
          "name": "_dataResolver",
          "type": "address"
        },
        {
          "internalType": "uint256",
          "name": "_collateral",
          "type": "uint256"
        },
        {
          "internalType": "uint256",
          "name": "_lotSize",
          "type": "uint256"
        },
        {
          "internalType": "uint256",
          "name": "_strikePrice",
          "type": "uint256"
        },
        {
          "internalType": "uint256",
          "name": "_expiry",
          "type": "uint256"
        },
        {
          "internalType": "bool",
          "name": "_isEuro",
          "type": "bool"
        },
        {
          "internalType": "bool",
          "name": "_isPut",
          "type": "bool"
        },
        {
          "internalType": "bool",
          "name": "_isRequest",
          "type": "bool"
        }
      ],
      "name": "createPiggy",
      "outputs": [
        {
          "internalType": "bool",
          "name": "",
          "type": "bool"
        }
      ],
      "payable": false,
      "stateMutability": "nonpayable",
      "type": "function"
    },
    {
      "constant": false,
      "inputs": [
        {
          "internalType": "uint256",
          "name": "_tokenId",
          "type": "uint256"
        }
      ],
      "name": "splitPiggy",
      "outputs": [
        {
          "internalType": "bool",
          "name": "",
          "type": "bool"
        }
      ],
      "payable": false,
      "stateMutability": "nonpayable",
      "type": "function"
    },
    {
      "constant": false,
      "inputs": [
        {
          "internalType": "address",
          "name": "_from",
          "type": "address"
        },
        {
          "internalType": "address",
          "name": "_to",
          "type": "address"
        },
        {
          "internalType": "uint256",
          "name": "_tokenId",
          "type": "uint256"
        }
      ],
      "name": "transferFrom",
      "outputs": [],
      "payable": false,
      "stateMutability": "nonpayable",
      "type": "function"
    },
    {
      "constant": false,
      "inputs": [
        {
          "internalType": "uint256",
          "name": "_tokenId",
          "type": "uint256"
        },
        {
          "internalType": "address",
          "name": "_collateralERC",
          "type": "address"
        },
        {
          "internalType": "address",
          "name": "_dataResolver",
          "type": "address"
        },
        {
          "internalType": "uint256",
          "name": "_reqCollateral",
          "type": "uint256"
        },
        {
          "internalType": "uint256",
          "name": "_lotSize",
          "type": "uint256"
        },
        {
          "internalType": "uint256",
          "name": "_strikePrice",
          "type": "uint256"
        },
        {
          "internalType": "uint256",
          "name": "_expiry",
          "type": "uint256"
        },
        {
          "internalType": "bool",
          "name": "_isEuro",
          "type": "bool"
        },
        {
          "internalType": "bool",
          "name": "_isPut",
          "type": "bool"
        }
      ],
      "name": "updateRFP",
      "outputs": [
        {
          "internalType": "bool",
          "name": "",
          "type": "bool"
        }
      ],
      "payable": false,
      "stateMutability": "nonpayable",
      "type": "function"
    },
    {
      "constant": false,
      "inputs": [
        {
          "internalType": "uint256",
          "name": "_tokenId",
          "type": "uint256"
        }
      ],
      "name": "reclaimAndBurn",
      "outputs": [
        {
          "internalType": "bool",
          "name": "",
          "type": "bool"
        }
      ],
      "payable": false,
      "stateMutability": "nonpayable",
      "type": "function"
    },
    {
      "constant": false,
      "inputs": [
        {
          "internalType": "uint256",
          "name": "_tokenId",
          "type": "uint256"
        },
        {
          "internalType": "uint256",
          "name": "_startPrice",
          "type": "uint256"
        },
        {
          "internalType": "uint256",
          "name": "_reservePrice",
          "type": "uint256"
        },
        {
          "internalType": "uint256",
          "name": "_auctionLength",
          "type": "uint256"
        },
        {
          "internalType": "uint256",
          "name": "_timeStep",
          "type": "uint256"
        },
        {
          "internalType": "uint256",
          "name": "_priceStep",
          "type": "uint256"
        }
      ],
      "name": "startAuction",
      "outputs": [
        {
          "internalType": "bool",
          "name": "",
          "type": "bool"
        }
      ],
      "payable": false,
      "stateMutability": "nonpayable",
      "type": "function"
    },
    {
      "constant": false,
      "inputs": [
        {
          "internalType": "uint256",
          "name": "_tokenId",
          "type": "uint256"
        }
      ],
      "name": "endAuction",
      "outputs": [
        {
          "internalType": "bool",
          "name": "",
          "type": "bool"
        }
      ],
      "payable": false,
      "stateMutability": "nonpayable",
      "type": "function"
    },
    {
      "constant": false,
      "inputs": [
        {
          "internalType": "uint256",
          "name": "_tokenId",
          "type": "uint256"
        }
      ],
      "name": "satisfyAuction",
      "outputs": [
        {
          "internalType": "bool",
          "name": "",
          "type": "bool"
        }
      ],
      "payable": false,
      "stateMutability": "nonpayable",
      "type": "function"
    },
    {
      "constant": false,
      "inputs": [
        {
          "internalType": "uint256",
          "name": "_tokenId",
          "type": "uint256"
        },
        {
          "internalType": "uint256",
          "name": "_oracleFee",
          "type": "uint256"
        }
      ],
      "name": "requestSettlementPrice",
      "outputs": [
        {
          "internalType": "bool",
          "name": "",
          "type": "bool"
        }
      ],
      "payable": false,
      "stateMutability": "nonpayable",
      "type": "function"
    },
    {
      "constant": false,
      "inputs": [
        {
          "internalType": "uint256",
          "name": "_tokenId",
          "type": "uint256"
        },
        {
          "internalType": "uint256",
          "name": "_price",
          "type": "uint256"
        }
      ],
      "name": "_callback",
      "outputs": [],
      "payable": false,
      "stateMutability": "nonpayable",
      "type": "function"
    },
    {
      "constant": false,
      "inputs": [
        {
          "internalType": "uint256",
          "name": "_tokenId",
          "type": "uint256"
        }
      ],
      "name": "settlePiggy",
      "outputs": [
        {
          "internalType": "bool",
          "name": "",
          "type": "bool"
        }
      ],
      "payable": false,
      "stateMutability": "nonpayable",
      "type": "function"
    },
    {
      "constant": false,
      "inputs": [
        {
          "internalType": "address",
          "name": "_paymentToken",
          "type": "address"
        },
        {
          "internalType": "uint256",
          "name": "_amount",
          "type": "uint256"
        }
      ],
      "name": "claimPayout",
      "outputs": [
        {
          "internalType": "bool",
          "name": "",
          "type": "bool"
        }
      ],
      "payable": false,
      "stateMutability": "nonpayable",
      "type": "function"
    },
    {
      "constant": true,
      "inputs": [
        {
          "internalType": "uint256",
          "name": "_tokenId",
          "type": "uint256"
        }
      ],
      "name": "getDetails",
      "outputs": [
        {
          "components": [
            {
              "components": [
                {
                  "internalType": "address",
                  "name": "writer",
                  "type": "address"
                },
                {
                  "internalType": "address",
                  "name": "holder",
                  "type": "address"
                },
                {
                  "internalType": "address",
                  "name": "collateralERC",
                  "type": "address"
                },
                {
                  "internalType": "address",
                  "name": "dataResolver",
                  "type": "address"
                }
              ],
              "internalType": "struct SmartBricks.DetailAddresses",
              "name": "addresses",
              "type": "tuple"
            },
            {
              "components": [
                {
                  "internalType": "uint256",
                  "name": "collateral",
                  "type": "uint256"
                },
                {
                  "internalType": "uint256",
                  "name": "lotSize",
                  "type": "uint256"
                },
                {
                  "internalType": "uint256",
                  "name": "strikePrice",
                  "type": "uint256"
                },
                {
                  "internalType": "uint256",
                  "name": "expiry",
                  "type": "uint256"
                },
                {
                  "internalType": "uint256",
                  "name": "settlementPrice",
                  "type": "uint256"
                },
                {
                  "internalType": "uint256",
                  "name": "reqCollateral",
                  "type": "uint256"
                },
                {
                  "internalType": "uint8",
                  "name": "collateralDecimals",
                  "type": "uint8"
                }
              ],
              "internalType": "struct SmartBricks.DetailUints",
              "name": "uintDetails",
              "type": "tuple"
            },
            {
              "components": [
                {
                  "internalType": "bool",
                  "name": "isRequest",
                  "type": "bool"
                },
                {
                  "internalType": "bool",
                  "name": "isEuro",
                  "type": "bool"
                },
                {
                  "internalType": "bool",
                  "name": "isPut",
                  "type": "bool"
                },
                {
                  "internalType": "bool",
                  "name": "hasBeenCleared",
                  "type": "bool"
                }
              ],
              "internalType": "struct SmartBricks.BoolFlags",
              "name": "flags",
              "type": "tuple"
            }
          ],
          "internalType": "struct SmartBricks.Piggy",
          "name": "",
          "type": "tuple"
        }
      ],
      "payable": false,
      "stateMutability": "view",
      "type": "function"
    },
    {
      "constant": true,
      "inputs": [
        {
          "internalType": "uint256",
          "name": "_tokenId",
          "type": "uint256"
        }
      ],
      "name": "getAuctionDetails",
      "outputs": [
        {
          "components": [
            {
              "internalType": "uint256",
              "name": "startBlock",
              "type": "uint256"
            },
            {
              "internalType": "uint256",
              "name": "expiryBlock",
              "type": "uint256"
            },
            {
              "internalType": "uint256",
              "name": "startPrice",
              "type": "uint256"
            },
            {
              "internalType": "uint256",
              "name": "reservePrice",
              "type": "uint256"
            },
            {
              "internalType": "uint256",
              "name": "timeStep",
              "type": "uint256"
            },
            {
              "internalType": "uint256",
              "name": "priceStep",
              "type": "uint256"
            },
            {
              "internalType": "bool",
              "name": "auctionActive",
              "type": "bool"
            },
            {
              "internalType": "bool",
              "name": "satisfyInProgress",
              "type": "bool"
            }
          ],
          "internalType": "struct SmartBricks.DetailAuction",
          "name": "",
          "type": "tuple"
        }
      ],
      "payable": false,
      "stateMutability": "view",
      "type": "function"
    },
    {
      "constant": true,
      "inputs": [
        {
          "internalType": "address",
          "name": "_owner",
          "type": "address"
        }
      ],
      "name": "getOwnedPiggies",
      "outputs": [
        {
          "internalType": "uint256[]",
          "name": "",
          "type": "uint256[]"
        }
      ],
      "payable": false,
      "stateMutability": "view",
      "type": "function"
    },
    {
      "constant": true,
      "inputs": [
        {
          "internalType": "address",
          "name": "_owner",
          "type": "address"
        },
        {
          "internalType": "address",
          "name": "_erc20",
          "type": "address"
        }
      ],
      "name": "getERC20balance",
      "outputs": [
        {
          "internalType": "uint256",
          "name": "",
          "type": "uint256"
        }
      ],
      "payable": false,
      "stateMutability": "view",
      "type": "function"
    },
    {
      "constant": false,
      "inputs": [],
      "name": "kill",
      "outputs": [],
      "payable": false,
      "stateMutability": "nonpayable",
      "type": "function"
    }
  ],
  "bytecode": "0x60806040523480156200001157600080fd5b50620000467f01ffc9a7000000000000000000000000000000000000000000000000000000006001600160e01b036200005e16565b600180546001600160a01b03191633179055620000cb565b7fffffffff0000000000000000000000000000000000000000000000000000000080821614156200008e57600080fd5b7fffffffff00000000000000000000000000000000000000000000000000000000166000908152602081905260409020805460ff19166001179055565b6144ef80620000db6000396000f3fe608060405234801561001057600080fd5b50600436106101215760003560e01c8063685b8b40116100ad578063b93a89f711610071578063b93a89f71461024c578063b9a2de3a1461026c578063bbecae151461027f578063f20e5e3514610292578063fff6fe5a146102b257610121565b8063685b8b40146101e057806388fed585146101f35780639a5fe9df14610213578063a827d31514610226578063abf11d6e1461023957610121565b806325a948e5116100f457806325a948e51461018c5780632894209f1461019f57806341c0e1b5146101b257806356ac2808146101ba57806359af508c146101cd57610121565b806301ffc9a71461012657806317d70f7c1461014f5780631a2fcc8b1461016457806323b872dd14610177575b600080fd5b610139610134366004612c53565b6102c5565b6040516101469190613ffb565b60405180910390f35b6101576102e8565b6040516101469190614357565b610139610172366004612c05565b6102ee565b61018a610185366004612af4565b610485565b005b61015761019a366004612aba565b6104ce565b6101396101ad366004612c71565b610522565b61018a61079f565b6101396101c8366004612b41565b6107c4565b6101396101db366004612c71565b6108b8565b6101396101ee366004612d20565b610a86565b610206610201366004612a9c565b610c6a565b6040516101469190613fea565b610139610221366004612c8f565b610cfc565b610139610234366004612c71565b610ee7565b61018a610247366004612d20565b6111da565b61025f61025a366004612c71565b6112d3565b6040516101469190614348565b61013961027a366004612c71565b6113df565b61013961028d366004612d3f565b611594565b6102a56102a0366004612c71565b6117a9565b6040516101469190614339565b6101396102c0366004612c71565b611826565b6001600160e01b0319811660009081526020819052604090205460ff165b919050565b60025481565b3360009081526003602090815260408083206001600160a01b038616845290915281205482111561033a5760405162461bcd60e51b8152600401610331906140f9565b60405180910390fd5b3360009081526003602090815260408083206001600160a01b038716845290915290205461036e908363ffffffff611cce16565b3360008181526003602090815260408083206001600160a01b03891680855292528083209490945592519092916103a9918690602401613f14565b60408051601f198184030181529181526020820180516001600160e01b031663a9059cbb60e01b179052516103de9190613f08565b6000604051808303816000865af19150503d806000811461041b576040519150601f19603f3d011682016040523d82523d6000602084013e610420565b606091505b50509050806104415760405162461bcd60e51b815260040161033190614019565b6040516001600160a01b03851690849033907f7b456c79443b1e226ff616818ce3708f317376cb1094cd5d65a55e51ece25bd290600090a460019150505b92915050565b6000818152600660205260409020600101546001600160a01b031633146104be5760405162461bcd60e51b815260040161033190614329565b6104c9838383611ce3565b505050565b60006001600160a01b0383166104f65760405162461bcd60e51b8152600401610331906141d9565b506001600160a01b03918216600090815260036020908152604080832093909416825291909152205490565b6000336105415760405162461bcd60e51b815260040161033190614239565b8161055e5760405162461bcd60e51b8152600401610331906141c9565b6000828152600660205260409020600b01546301000000900460ff166105965760405162461bcd60e51b815260040161033190614139565b6000828152600660205260408120600b0154610100900460ff16156105e6576000838152600660205260409020600701544310156105e65760405162461bcd60e51b815260040161033190614309565b6000838152600660208190526040909120600b8101546008820154928201546005830154600a90930154610628946201000090930460ff908116949116611db8565b60008481526006602052604090208054600182015460028301546004909301549394506001600160a01b0391821693908216929091169084111561067b5760008681526006602052604090206004015493505b6001600160a01b038083166000908152600360209081526040808320938516835292905220546106b1908563ffffffff611e3a16565b6001600160a01b03808416600090815260036020908152604080832093861683529281528282209390935588815260069092529020600401546106fa908563ffffffff611cce16565b6001600160a01b03808516600090815260036020908152604080832093861683529281528282209390935588815260069092529020600401548490879033907f24827fe6f8d4089bee240c9fb4b9fb5a994e34610b00aeb4cfc427f4807cca1a9061076b908563ffffffff611cce16565b6040516107789190614357565b60405180910390a461078a8287611e53565b61079386611f48565b50600195945050505050565b6001546001600160a01b031633146107b657600080fd5b6001546001600160a01b0316ff5b60006001600160a01b038a16158015906107e657506001600160a01b03891615155b6108025760405162461bcd60e51b815260040161033190614009565b871580159061081057508615155b801561081b57508515155b801561082657508415155b6108425760405162461bcd60e51b815260040161033190614209565b816108765760006108558b33308c611fcd565b9050806108745760405162461bcd60e51b815260040161033190614149565b505b61088b8a8a8a8a8a8a60008b8b8b6000612075565b6108a75760405162461bcd60e51b815260040161033190614029565b5060015b9998505050505050505050565b6000818152600660205260408120600101546001600160a01b031633146108f15760405162461bcd60e51b815260040161033190614229565b60008281526007602052604090206006015460ff16156109235760405162461bcd60e51b815260040161033190614189565b6000828152600660205260409020600b015460ff16610a0c576000828152600660205260409020546001600160a01b031633146109725760405162461bcd60e51b8152600401610331906142a9565b600082815260066020526040908190206002810154600491820154925163a9059cbb60e01b81526001600160a01b039091169263a9059cbb926109b89233929101613f2f565b602060405180830381600087803b1580156109d257600080fd5b505af11580156109e6573d6000803e3d6000fd5b505050506040513d601f19601f82011682018060405250610a0a9190810190612c35565b505b600082815260066020526040808220600b0154905160ff909116151591849133917f6d36d64725ed2ba6d5b45497a83b141bc51d4803efaa99039162496e7f7465c291a4600082815260066020526040902060010154610a75906001600160a01b031683611e53565b610a7e82611f48565b506001919050565b600033610aa55760405162461bcd60e51b815260040161033190614219565b60008381526007602052604090206006015460ff1615610ad75760405162461bcd60e51b8152600401610331906142e9565b6000838152600660205260409020600b01546301000000900460ff1615610b105760405162461bcd60e51b8152600401610331906141e9565b82610b2d5760405162461bcd60e51b815260040161033190614099565b81610b4a5760405162461bcd60e51b815260040161033190614039565b6000838152600660205260409020600b0154610100900460ff1615610b8757600083815260066020526040902060070154431015610b8757600080fd5b6000838152600660205260408120600b0154610100900460ff1680610bbc575060008481526006602052604090206007015443115b15610be257506000838152600660205260409020600301546001600160a01b0316610c38565b6000848152600660205260409020600101546001600160a01b03163314610c1b5760405162461bcd60e51b8152600401610331906142f9565b506000838152600660205260409020600301546001600160a01b03165b610c44813385876125f8565b610c605760405162461bcd60e51b815260040161033190614279565b5060019392505050565b60606001600160a01b038216610c925760405162461bcd60e51b8152600401610331906141d9565b6001600160a01b03821660009081526004602090815260409182902080548351818402810184019094528084529091830182828015610cf057602002820191906000526020600020905b815481526020019060010190808311610cdc575b50505050509050919050565b6000898152600660205260408120600101546001600160a01b03163314610d355760405162461bcd60e51b815260040161033190614059565b60008a8152600660205260409020600b015460ff16610d665760405162461bcd60e51b815260040161033190614319565b60006001600160a01b038a1615610da25760008b815260066020526040902060020180546001600160a01b0319166001600160a01b038c161790555b6001600160a01b03891615610ddc5760008b815260066020526040902060030180546001600160a01b0319166001600160a01b038b161790555b8715610df75760008b81526006602052604090206009018890555b8615610e125760008b81526006602052604090206005018790555b8515610e2e5760008b8152600660208190526040909120018690555b8415610e5b57610e44854363ffffffff611e3a16565b60008c815260066020526040902060070181905590505b60008b81526006602052604090819020600b01805461ff001916610100871515021762ff000019166201000086151502179055518b9033907ff5a5259c33feec06c58c323b749f8d4dba372d82983bbb79b025a162d3e99cb990610ece908e908e908e908e908e908a908e908e90613f65565b60405180910390a35060019a9950505050505050505050565b600081610f065760405162461bcd60e51b815260040161033190614159565b6000828152600660205260409020546001600160a01b0316610f3a5760405162461bcd60e51b8152600401610331906141f9565b6000828152600660205260409020600b015460ff1615610f6c5760405162461bcd60e51b8152600401610331906141b9565b600082815260066020526040902060040154610f9a5760405162461bcd60e51b8152600401610331906140c9565b6000828152600660205260409020600101546001600160a01b03163314610fd35760405162461bcd60e51b815260040161033190614119565b60008281526006602052604090206007015443106110035760405162461bcd60e51b815260040161033190614169565b60008281526007602052604090206006015460ff16156110355760405162461bcd60e51b815260040161033190614249565b6000828152600660205260409020600b01546301000000900460ff161561106e5760405162461bcd60e51b8152600401610331906140d9565b600280546000908152600660205260408120600401549091611096919063ffffffff61270216565b90506110a23384611e53565b60008381526006602052604080822060028082015460039092015490548452919092206004015461112e926001600160a01b039081169216906110eb908563ffffffff611cce16565b600087815260066020819052604082206005810154918101546007820154600b90920154929390928b9160ff610100830481169262010000900416906001612075565b61114a5760405162461bcd60e51b8152600401610331906142c9565b60008381526006602081905260408220600281015460038201546005830154938301546007840154600b909401546111ac966001600160a01b03948516969390941694889490918b9160ff610100830481169262010000900416906001612075565b6111c85760405162461bcd60e51b8152600401610331906142b9565b6111d183611f48565b50600192915050565b6000828152600660205260408120600b0154610100900460ff168061120f575060008381526006602052604090206007015443115b1561123557506000828152600660205260409020600301546001600160a01b0316611252565b506000828152600660205260409020600301546001600160a01b03165b336001600160a01b0382161461127a5760405162461bcd60e51b815260040161033190614079565b60008381526006602052604080822060088101859055600b01805463ff00000019166301000000179055518391859133917f09501576903c44a3f43eebbcee4603f6664e6f88e6d9943eb95c26f890b0353991a4505050565b6112db61293e565b50600090815260066020818152604092839020835160e0808201865282546001600160a01b039081166060808501918252600186015483166080808701919091526002870154841660a080880191909152600388015490941660c08088019190915292865289519485018a526004870154855260058701548589015297860154848a0152600786015484820152600886015484890152600986015492840192909252600a85015460ff908116918401919091528386019290925286519586018752600b909301548082161515865261010081048216151594860194909452620100008404811615158587015263010000009093049092161515908301529182015290565b6000818152600660205260408120600101546001600160a01b031633146114185760405162461bcd60e51b8152600401610331906140a9565b60008281526007602052604090206006015460ff166114495760405162461bcd60e51b815260040161033190614289565b600082815260076020526040902060060154610100900460ff16156114805760405162461bcd60e51b815260040161033190614089565b6000828152600660205260409020600b015460ff161561153f5760008281526007602090815260408083206003015460069092529182902060020154915163a9059cbb60e01b815290916001600160a01b03169063a9059cbb906114ea9033908590600401613f2f565b602060405180830381600087803b15801561150457600080fd5b505af1158015611518573d6000803e3d6000fd5b505050506040513d601f19601f8201168201806040525061153c9190810190612c35565b50505b61154882612724565b600082815260066020526040808220600b0154905160ff909116151591849133917f1b263718a9da58fd8fbc3c9f97a9f04b73318dd5d4d7e4f921f639dd5f0c233b91a4506001919050565b6000806115a7438663ffffffff611e3a16565b6000898152600660205260409020600101549091506001600160a01b031633146115e35760405162461bcd60e51b8152600401610331906140a9565b60008881526006602052604090206007015443106116135760405162461bcd60e51b815260040161033190614259565b60008881526006602052604090206007015481106116435760405162461bcd60e51b815260040161033190614299565b6000888152600660205260409020600b01546301000000900460ff161561167c5760405162461bcd60e51b815260040161033190614069565b60008881526007602052604090206006015460ff16156116ae5760405162461bcd60e51b815260040161033190614129565b6000888152600660205260409020600b015460ff1615611710576000888152600660205260408120600201546116ef906001600160a01b031633308a611fcd565b90508061170e5760405162461bcd60e51b8152600401610331906140b9565b505b600088815260076020526040908190204381556001808201849055600282018a90556003820189905560048201879055600582018690556006909101805460ff1916909117905551889033907f88a665277b4dcf78a761227e836d2b9c98169b818abf80cb4297114cb71a019f90611791908b908b908b908b908b906143a9565b60405180910390a360019150505b9695505050505050565b6117b1612970565b5060009081526007602090815260409182902082516101008082018552825482526001830154938201939093526002820154938101939093526003810154606084015260048101546080840152600581015460a08401526006015460ff808216151560c085015291900416151560e082015290565b600081815260076020526040812060060154610100900460ff161561185d5760405162461bcd60e51b815260040161033190614109565b6000828152600660205260409020600101546001600160a01b03163314156118975760405162461bcd60e51b815260040161033190614049565b60008281526007602052604090206006015460ff166118c85760405162461bcd60e51b8152600401610331906140e9565b6000828152600760205260409020600101544311156118f2576118ea82612724565b5060006102e3565b60006118fd83612766565b60008481526007602090815260408083206006908101805461ff0019166101001790559091529020600b015490915060ff1615611ba85760008381526006602052604081206002810154600990910154611964916001600160a01b03169033903090611fcd565b90508061198d575050506000818152600760205260408120600601805461ff00191690556102e3565b60008481526006602090815260408083206009810154600490910155600790915281206003015483908111156119d557506000858152600760205260409020600301546119fa565b6000868152600760205260409020600301546119f7908263ffffffff611cce16565b91505b6000868152600660205260409081902060020154905163a9059cbb60e01b81526001600160a01b039091169063a9059cbb90611a3c9033908590600401613f2f565b602060405180830381600087803b158015611a5657600080fd5b505af1158015611a6a573d6000803e3d6000fd5b505050506040513d601f19601f82011682018060405250611a8e9190810190612c35565b508115611b3357600086815260066020526040908190206002810154600190910154915163a9059cbb60e01b81526001600160a01b039182169263a9059cbb92611adf929116908690600401613f14565b602060405180830381600087803b158015611af957600080fd5b505af1158015611b0d573d6000803e3d6000fd5b505050506040513d601f19601f82011682018060405250611b319190810190612c35565b505b60008681526006602052604090819020600b8101805460ff1916905580546001600160a01b0319163390811790915590518791907f5f96074f1a6f13e028fea4b54d89ce40af34737ec917ab068e618b51c43415ff90611b9890859087908a9061439b565b60405180910390a3505050611ca4565b6000838152600760205260409020600301548190811015611bd757506000838152600760205260409020600301545b60008481526006602052604081206002810154600190910154611c09916001600160a01b039081169133911685611fcd565b905080611c34575050506000828152600760205260408120600601805461ff001916905590506102e3565b600085815260066020526040902060010154611c5a906001600160a01b03163387611ce3565b84336001600160a01b03167f5f96074f1a6f13e028fea4b54d89ce40af34737ec917ab068e618b51c43415ff84600087604051611c9993929190614380565b60405180910390a350505b611cad83612724565b50506000908152600760205260409020600601805461ff0019169055600190565b600082821115611cdd57600080fd5b50900390565b6000818152600660205260409020600101546001600160a01b03848116911614611d1f5760405162461bcd60e51b8152600401610331906141a9565b6001600160a01b038216611d455760405162461bcd60e51b815260040161033190614269565b611d4f8382611e53565b611d5982826127e9565b60008181526006602052604080822060010180546001600160a01b0319166001600160a01b0386811691821790925591518493918716917f71bf9544ab5405f66022054c1753722fc8011fcea0317b8c57b43cfbf9f44dd891a4505050565b6000858015611dc657508484115b15611dde57611ddb848663ffffffff611cce16565b90505b85158015611deb57508385115b15611e0357611e00858563ffffffff611cce16565b90505b61179f6064611e2e85611e228560ff8816600a0a63ffffffff61282716565b9063ffffffff61282716565b9063ffffffff61270216565b600082820183811015611e4c57600080fd5b9392505050565b6001600160a01b038216600090815260046020526040812054611e7d90600163ffffffff611cce16565b600083815260056020526040902054909150808214611f18576001600160a01b0384166000908152600460205260408120805484908110611eba57fe5b906000526020600020015490508060046000876001600160a01b03166001600160a01b031681526020019081526020016000208381548110611ef857fe5b600091825260208083209091019290925591825260059052604090208190555b6001600160a01b0384166000908152600460205260409020805490611f419060001983016129b9565b5050505050565b6000908152600660208190526040822080546001600160a01b0319908116825560018201805482169055600282018054821690556003820180549091169055600481018390556005810183905590810182905560078101829055600881018290556009810191909155600a8101805460ff19169055600b01805463ffffffff19169055565b600080856001600160a01b0316858585604051602401611fef93929190613f3d565b60408051601f198184030181529181526020820180516001600160e01b03166323b872dd60e01b179052516120249190613f08565b6000604051808303816000865af19150503d8060008114612061576040519150601f19603f3d011682016040523d82523d6000602084013e612066565b606091505b5090925050505b949350505050565b60008061208e6001600254611e3a90919063ffffffff16565b60028190555060006006600060025481526020019081526020016000209050338160000160010160006101000a8154816001600160a01b0302191690836001600160a01b031602179055508d8160000160020160006101000a8154816001600160a01b0302191690836001600160a01b031602179055508c8160000160030160006101000a8154816001600160a01b0302191690836001600160a01b031602179055508a81600401600101819055508981600401600201819055508681600b0160000160016101000a81548160ff0219169083151502179055508581600b0160000160026101000a81548160ff0219169083151502179055508481600b0160000160006101000a81548160ff02191690831515021790555084156121f0576121bc894363ffffffff611e3a16565b600982018d905591506121ce8e61284e565b600a8201805460ff191660ff92909216919091179055600781018290556123e5565b831561237757876122135760405162461bcd60e51b815260040161033190614159565b6000888152600660205260409020600b015460ff16156122455760405162461bcd60e51b8152600401610331906141b9565b6000888152600660205260409020600101546001600160a01b0316331461227e5760405162461bcd60e51b815260040161033190614119565b60008881526006602052604090206007015443106122ae5760405162461bcd60e51b815260040161033190614169565b60008881526007602052604090206006015460ff16156122e05760405162461bcd60e51b815260040161033190614249565b6000888152600660205260409020600b01546301000000900460ff16156123195760405162461bcd60e51b8152600401610331906140d9565b6000888152600660205260409020600780820154825484546001600160a01b0319166001600160a01b03909116178455600484018f9055600a92830154928401805460ff191660ff90941693909317909255820181905591506123e5565b83156123955760405162461bcd60e51b815260040161033190614179565b6123a5894363ffffffff611e3a16565b81546001600160a01b03191633178255600482018d905591506123c78e61284e565b600a8201805460ff191660ff92909216919091179055600781018290555b6123f1336002546127e9565b6040805160028082526060808301845292602083019080388339019050509050338160008151811061241f57fe5b60200260200101906001600160a01b031690816001600160a01b0316815250508d8160018151811061244d57fe5b6001600160a01b039092166020928302919091019091015260408051600480825260a082019092526060918160200160208202803883390190505090506002548160008151811061249a57fe5b6020026020010181815250508d816001815181106124b457fe5b6020026020010181815250508c816002815181106124ce57fe5b60200260200101818152505083816001815181106124e857fe5b602090810291909101015260408051600380825260808201909252606091816020016020820280388339019050509050898160008151811061252657fe5b602002602001019015159081151581525050888160018151811061254657fe5b602002602001019015159081151581525050878160028151811061256657fe5b91151560209283029190910190910152604051612584908290613ef0565b60405180910390208260405161259a9190613efc565b6040518091039020846040516125b09190613ee4565b604051908190038120907f79c04e36c28d806bb8719f8cd7394009de667536bd850da3d9b1f88536ba7a8590600090a46001955050505050509b9a5050505050505050505050565b600080856001600160a01b031685858560405160240161261a93929190613fcf565b60408051601f198184030181529181526020820180516001600160e01b0316631aa8ccc960e01b1790525161264f9190613f08565b6000604051808303816000865af19150503d806000811461268c576040519150601f19603f3d011682016040523d82523d6000602084013e612691565b606091505b50509050806126b25760405162461bcd60e51b815260040161033190614199565b82856001600160a01b03167f6e9f88567c24566f7654186f0a7171f7c85eff316314402531824e2d1e2b167586896040516126ee929190614365565b60405180910390a350600195945050505050565b600080821161271057600080fd5b600082848161271b57fe5b04949350505050565b6000908152600760205260408120818155600181018290556002810182905560038101829055600481018290556005810191909155600601805460ff19169055565b60008181526007602052604081206002810154600482015460058301549254919284926127a39291611e2e91611e2290439063ffffffff611cce16565b6000858152600660205260409020600b015490915060ff16156127d9576127d0828263ffffffff611e3a16565b925050506102e3565b6127d0828263ffffffff611cce16565b6001600160a01b0390911660009081526004602081815260408084208054868652600584529185208290559282526001810183559183529091200155565b6000826128365750600061047f565b8282028284828161284357fe5b0414611e4c57600080fd5b60408051600481526024810182526020810180516001600160e01b031663313ce56760e01b179052905160009182916060916001600160a01b038616916128959190613f08565b6000604051808303816000865af19150503d80600081146128d2576040519150601f19603f3d011682016040523d82523d6000602084013e6128d7565b606091505b5091509150816128f95760405162461bcd60e51b8152600401610331906142d9565b6000805b8251811015612935578060010183510360080260020a83828151811061291f57fe5b016020015160f81c0291909101906001016128fd565b50949350505050565b60405180606001604052806129516129dd565b815260200161295e612a04565b815260200161296b6129dd565b905290565b6040518061010001604052806000815260200160008152602001600081526020016000815260200160008152602001600081526020016000151581526020016000151581525090565b8154818355818111156104c9576000838152602090206104c9918101908301612a44565b60408051608081018252600080825260208201819052918101829052606081019190915290565b6040518060e00160405280600081526020016000815260200160008152602001600081526020016000815260200160008152602001600060ff1681525090565b612a6291905b80821115612a5e5760008155600101612a4a565b5090565b90565b803561047f8161447a565b803561047f81614491565b805161047f81614491565b803561047f8161449a565b803561047f816144a3565b600060208284031215612aae57600080fd5b600061206d8484612a65565b60008060408385031215612acd57600080fd5b6000612ad98585612a65565b9250506020612aea85828601612a65565b9150509250929050565b600080600060608486031215612b0957600080fd5b6000612b158686612a65565b9350506020612b2686828701612a65565b9250506040612b3786828701612a91565b9150509250925092565b60008060008060008060008060006101208a8c031215612b6057600080fd5b6000612b6c8c8c612a65565b9950506020612b7d8c828d01612a65565b9850506040612b8e8c828d01612a91565b9750506060612b9f8c828d01612a91565b9650506080612bb08c828d01612a91565b95505060a0612bc18c828d01612a91565b94505060c0612bd28c828d01612a70565b93505060e0612be38c828d01612a70565b925050610100612bf58c828d01612a70565b9150509295985092959850929598565b60008060408385031215612c1857600080fd5b6000612c248585612a65565b9250506020612aea85828601612a91565b600060208284031215612c4757600080fd5b600061206d8484612a7b565b600060208284031215612c6557600080fd5b600061206d8484612a86565b600060208284031215612c8357600080fd5b600061206d8484612a91565b60008060008060008060008060006101208a8c031215612cae57600080fd5b6000612cba8c8c612a91565b9950506020612ccb8c828d01612a65565b9850506040612cdc8c828d01612a65565b9750506060612ced8c828d01612a91565b9650506080612cfe8c828d01612a91565b95505060a0612d0f8c828d01612a91565b94505060c0612bd28c828d01612a91565b60008060408385031215612d3357600080fd5b6000612c248585612a91565b60008060008060008060c08789031215612d5857600080fd5b6000612d648989612a91565b9650506020612d7589828a01612a91565b9550506040612d8689828a01612a91565b9450506060612d9789828a01612a91565b9350506080612da889828a01612a91565b92505060a0612db989828a01612a91565b9150509295509295509295565b6000612dd28383612e01565b505060200190565b6000612dd28383612f4d565b6000612dd28383613ed2565b612dfb8161442d565b82525050565b612dfb816143fe565b6000612e15826143f1565b612e1f81856102e3565b9350612e2a836143eb565b8060005b83811015612e58578151612e428882612dc6565b9750612e4d836143eb565b925050600101612e2e565b509495945050505050565b6000612e6e826143f1565b612e7881856102e3565b9350612e83836143eb565b8060005b83811015612e58578151612e9b8882612dda565b9750612ea6836143eb565b925050600101612e87565b6000612ebc826143f1565b612ec681856143f5565b9350612ed1836143eb565b8060005b83811015612e58578151612ee98882612de6565b9750612ef4836143eb565b925050600101612ed5565b6000612f0a826143f1565b612f1481856102e3565b9350612f1f836143eb565b8060005b83811015612e58578151612f378882612de6565b9750612f42836143eb565b925050600101612f23565b612dfb81614409565b6000612f61826143f1565b612f6b81856102e3565b9350612f7b81856020860161444e565b9290920192915050565b612dfb81614438565b6000612f9b6018836143f5565b7f6164647265737365732063616e6e6f74206265207a65726f0000000000000000815260200192915050565b6000612fd4601b836143f5565b7f455243323020746f6b656e207472616e73666572206661696c65640000000000815260200192915050565b600061300d6016836143f5565b7f6661696c656420746f2063726561746520706967677900000000000000000000815260200192915050565b60006130466019836143f5565b7f6f7261636c65206665652063616e6e6f74206265207a65726f00000000000000815260200192915050565b600061307f6037836143f5565b7f63616e6e6f74207361746973667920796f7572206f776e2061756374696f6e3b81527f2075736520656e6441756374696f6e20696e7374656164000000000000000000602082015260400192915050565b60006130de6021836143f5565b7f796f75206d757374206f776e207468652052465020746f2075706461746520698152601d60fa1b602082015260400192915050565b6000613121601f836143f5565b7f6f7074696f6e2063616e6e6f742068617665206265656e20636c656172656400815260200192915050565b600061315a601f836143f5565b7f7265736f6c7665206164647265737320776173206e6f7420636f727265637400815260200192915050565b60006131936033836143f5565b7f61756374696f6e2063616e6e6f7420626520696e207468652070726f6365737381527f206f66206265696e672073617469736669656400000000000000000000000000602082015260400192915050565b60006131f26017836143f5565b7f5f746f6b656e49642063616e6e6f74206265207a65726f000000000000000000815260200192915050565b600061322b6022836143f5565b7f796f75206d757374206f776e206120746f6b656e20746f2061756374696f6e208152611a5d60f21b602082015260400192915050565b600061326f6020836143f5565b7f7472616e7366657246726f6d20646964206e6f742072657475726e2074727565815260200192915050565b60006132a8602a836143f5565b7f746f6b656e20636f6c6c61746572616c206d7573742062652067726561746572815269207468616e207a65726f60b01b602082015260400192915050565b60006132f46028836143f5565b7f63616e6e6f742073706c697420746f6b656e207468617420686173206265656e8152670818db19585c995960c21b602082015260400192915050565b600061333e6024836143f5565b7f61756374696f6e206d7573742062652061637469766520746f207361746973668152631e481a5d60e21b602082015260400192915050565b6000613384602b836143f5565b7f45524332302062616c616e6365206973206c657373207468616e20726571756581526a1cdd195908185b5bdd5b9d60aa1b602082015260400192915050565b60006133d16034836143f5565b7f63616e6e6f74207265656e74657220746869732066756e6374696f6e2077686981527f6c6520697420697320696e2070726f6772657373000000000000000000000000602082015260400192915050565b60006134306019836143f5565b7f6f6e6c792074686520686f6c6465722063616e2073706c697400000000000000815260200192915050565b60006134696021836143f5565b7f61756374696f6e2063616e6e6f7420616c72656164792062652072756e6e696e8152606760f81b602082015260400192915050565b60006134ac6026836143f5565b7f706967677920686173206e6f7420726563656976656420616e206f7261636c6581526520707269636560d01b602082015260400192915050565b60006134f4601f836143f5565b7f546f6b656e207472616e7366657220646964206e6f7420636f6d706c65746500815260200192915050565b600061352d6017836143f5565b7f746f6b656e2049442063616e6e6f74206265207a65726f000000000000000000815260200192915050565b6000613566601a836143f5565b7f63616e6e6f742073706c6974206578706972656420746f6b656e000000000000815260200192915050565b600061359f602e836143f5565b7f73706c69742063616e6e6f742062652074727565207768656e2063726561746981527f6e672061206e6577207069676779000000000000000000000000000000000000602082015260400192915050565b60006135fe602b836143f5565b7f796f752063616e6e6f74206275726e206120746f6b656e20776869636820697381526a1037b71030bab1ba34b7b760a91b602082015260400192915050565b600061364b6021836143f5565b7f6665746368207375636365737320646964206e6f742072657475726e207472758152606560f81b602082015260400192915050565b600061368e601d836143f5565b7f66726f6d2061646472657373206973206e6f7420746865206f776e6572000000815260200192915050565b60006136c76016836143f5565b7f746f6b656e2063616e6e6f7420626520616e2052465000000000000000000000815260200192915050565b60006137006016836143f5565b7f746f6b656e49642063616e6e6f74206265207a65726f00000000000000000000815260200192915050565b60006137396016836143f5565b7f616464726573732063616e6e6f74206265207a65726f00000000000000000000815260200192915050565b6000613772601e836143f5565b7f746f6b656e2068617320616c7265616479206265656e20636c65617265640000815260200192915050565b60006137ab6025836143f5565b7f746f6b656e207772697465722063616e6e6f742062652061207a65726f206164815264647265737360d81b602082015260400192915050565b60006137f26020836143f5565b7f6f7074696f6e20706172616d65746572732063616e6e6f74206265207a65726f815260200192915050565b600061382b6021836143f5565b7f73656e6465722063616e6e6f7420626520746865207a65726f206164647265738152607360f81b602082015260400192915050565b600061386e6021836143f5565b7f796f75206d757374206f776e2074686520746f6b656e20746f206275726e20698152601d60fa1b602082015260400192915050565b60006138b16019836143f5565b7f6d73672e73656e6465722063616e6e6f74206265207a65726f00000000000000815260200192915050565b60006138ea601d836143f5565b7f63616e6e6f742073706c697420746f6b656e206f6e2061756374696f6e000000815260200192915050565b6000613923601a836143f5565b7f6f7074696f6e206d757374206e6f742062652065787069726564000000000000815260200192915050565b600061395c6012836143f5565b7f746f2061646472657373206973207a65726f0000000000000000000000000000815260200192915050565b60006139956024836143f5565b7f63616c6c20746f207265736f6c76657220646964206e6f742072657475726e208152637472756560e01b602082015260400192915050565b60006139db6023836143f5565b7f61756374696f6e206d7573742062652061637469766520746f2063616e63656c815262081a5d60ea1b602082015260400192915050565b6000613a206026836143f5565b7f61756374696f6e2063616e6e6f7420657870697265206166746572207468652081526537b83a34b7b760d11b602082015260400192915050565b6000613a686029836143f5565b7f796f75206d757374206f776e2074686520636f6c6c61746572616c20746f20728152681958db185a5b481a5d60ba1b602082015260400192915050565b6000613ab3601a836143f5565b7f6661696c656420746f206d616b652061206e6577207069676779000000000000815260200192915050565b6000613aec601c836143f5565b7f6661696c656420746f206372656174652061206e657720706967677900000000815260200192915050565b6000613b25603d836143f5565b7f636f6c6c61746572616c204552432d323020636f6e747261637420646f65732081527f6e6f742070726f7065726c79207370656369667920646563696d616c73000000602082015260400192915050565b6000613b84602c836143f5565b7f63616e6e6f7420636c656172206120746f6b656e207768696c6520617563746981526b6f6e2069732061637469766560a01b602082015260400192915050565b6000613bd26041836143f5565b7f6f6e6c792074686520686f6c6465722063616e20736574746c6520616e20416d81527f65726963616e207374796c65206f7074696f6e206265666f72652065787069726020820152607960f81b604082015260600192915050565b6000613c3b6023836143f5565b7f4575726f7065616e206f7074696f6e206e6565647320746f20626520657870698152621c995960ea1b602082015260400192915050565b6000613c80601a836143f5565b7f796f752063616e206f6e6c792075706461746520616e20524650000000000000815260200192915050565b6000613cb9601b836143f5565b7f6d73672e73656e646572206973206e6f7420746865206f776e65720000000000815260200192915050565b80516080830190613cf68482612f4d565b506020820151613d096020850182612f4d565b506040820151613d1c6040850182612f4d565b506060820151613d2f6060850182612f4d565b50505050565b80516080830190613d468482612e01565b506020820151613d596020850182612e01565b506040820151613d6c6040850182612e01565b506060820151613d2f6060850182612e01565b8051610100830190613d918482613ed2565b506020820151613da46020850182613ed2565b506040820151613db76040850182613ed2565b506060820151613dca6060850182613ed2565b506080820151613ddd6080850182613ed2565b5060a0820151613df060a0850182613ed2565b5060c0820151613e0360c0850182612f4d565b5060e0820151613d2f60e0850182612f4d565b805160e0830190613e278482613ed2565b506020820151613e3a6020850182613ed2565b506040820151613e4d6040850182613ed2565b506060820151613e606060850182613ed2565b506080820151613e736080850182613ed2565b5060a0820151613e8660a0850182613ed2565b5060c0820151613d2f60c0850182613edb565b80516101e0830190613eab8482613d35565b506020820151613ebe6080850182613e16565b506040820151613d2f610160850182613ce5565b612dfb81612a62565b612dfb81614427565b6000611e4c8284612e0a565b6000611e4c8284612e63565b6000611e4c8284612eff565b6000611e4c8284612f56565b60408101613f228285612e01565b611e4c6020830184613ed2565b60408101613f228285612df2565b60608101613f4b8286612e01565b613f586020830185612e01565b61206d6040830184613ed2565b6101008101613f74828b612e01565b613f81602083018a612e01565b613f8e6040830189613ed2565b613f9b6060830188613ed2565b613fa86080830187613ed2565b613fb560a0830186613ed2565b613fc260c0830185612f4d565b6108ab60e0830184612f4d565b60608101613fdd8286612e01565b613f586020830185613ed2565b60208082528101611e4c8184612eb1565b6020810161047f8284612f4d565b6020808252810161047f81612f8e565b6020808252810161047f81612fc7565b6020808252810161047f81613000565b6020808252810161047f81613039565b6020808252810161047f81613072565b6020808252810161047f816130d1565b6020808252810161047f81613114565b6020808252810161047f8161314d565b6020808252810161047f81613186565b6020808252810161047f816131e5565b6020808252810161047f8161321e565b6020808252810161047f81613262565b6020808252810161047f8161329b565b6020808252810161047f816132e7565b6020808252810161047f81613331565b6020808252810161047f81613377565b6020808252810161047f816133c4565b6020808252810161047f81613423565b6020808252810161047f8161345c565b6020808252810161047f8161349f565b6020808252810161047f816134e7565b6020808252810161047f81613520565b6020808252810161047f81613559565b6020808252810161047f81613592565b6020808252810161047f816135f1565b6020808252810161047f8161363e565b6020808252810161047f81613681565b6020808252810161047f816136ba565b6020808252810161047f816136f3565b6020808252810161047f8161372c565b6020808252810161047f81613765565b6020808252810161047f8161379e565b6020808252810161047f816137e5565b6020808252810161047f8161381e565b6020808252810161047f81613861565b6020808252810161047f816138a4565b6020808252810161047f816138dd565b6020808252810161047f81613916565b6020808252810161047f8161394f565b6020808252810161047f81613988565b6020808252810161047f816139ce565b6020808252810161047f81613a13565b6020808252810161047f81613a5b565b6020808252810161047f81613aa6565b6020808252810161047f81613adf565b6020808252810161047f81613b18565b6020808252810161047f81613b77565b6020808252810161047f81613bc5565b6020808252810161047f81613c2e565b6020808252810161047f81613c73565b6020808252810161047f81613cac565b610100810161047f8284613d7f565b6101e0810161047f8284613e99565b6020810161047f8284613ed2565b604081016143738285613ed2565b611e4c6020830184612e01565b6060810161438e8286613ed2565b613f586020830185612f85565b60608101613fdd8286613ed2565b60a081016143b78288613ed2565b6143c46020830187613ed2565b6143d16040830186613ed2565b6143de6060830185613ed2565b61179f6080830184613ed2565b60200190565b5190565b90815260200190565b600061047f8261441b565b151590565b6001600160e01b03191690565b6001600160a01b031690565b60ff1690565b600061047f82614443565b600061047f82612a62565b600061047f826143fe565b60005b83811015614469578181015183820152602001614451565b83811115613d2f5750506000910152565b614483816143fe565b811461448e57600080fd5b50565b61448381614409565b6144838161440e565b61448381612a6256fea365627a7a72315820481ae177382b3125a90584a0c3184a24ae35347d2432ac09182c371409b235896c6578706572696d656e74616cf564736f6c634300050b0040",
  "source": "// Implemented from the SmartPiggies contract\n\n/**\nSmartPiggies is an open source standard for\na free peer to peer global derivatives market\n\nCopyright (C) 2019, Arief, Algya, Lee\n\nThis program is free software: you can redistribute it and/or modify\nit under the terms of the GNU General Public License as published by\nthe Free Software Foundation, either version 3 of the License, or\n(at your option) any later version.\n\nThis program is distributed in the hope that it will be useful,\nbut WITHOUT ANY WARRANTY; without even the implied warranty of\nMERCHANTABILITY or FITNESS FOR A PARTICULAR PURPOSE.  See the\nGNU General Public License for more details.\n\nYou should have received a copy of the GNU General Public License\nalong with this program.  If not, see <http://www.gnu.org/licenses/>.\n**/\npragma solidity >=0.4.24 <0.6.0;\npragma experimental ABIEncoderV2;\n\n// massive thanks to ERC-721 spec for this D:\n\n// references to \"oracles\" could use a different / more general term\n// so that the spec could use signed data directly from \"source\" w/ same interface\n\ninterface PaymentToken {\n  function transferFrom(address from, address to, uint256 value) external returns (bool);\n  function transfer(address to, uint256 value) external returns (bool);\n  function decimals() external returns (uint8);\n}\n\nimport \"./ERC165.sol\";\nimport \"./SafeMath.sol\";\n//import \"https://github.com/OpenZeppelin/openzeppelin-solidity/contracts/introspection/ERC165.sol\";\n//import \"https://github.com/OpenZeppelin/openzeppelin-solidity/contracts/math/SafeMath.sol\";\n\n/** @title SmartPiggies: A Smart Option Standard\n*/\ncontract SmartBricks is ERC165 {\n  using SafeMath for uint256;\n\n  address payable owner;\n  uint256 public tokenId;\n\n  struct DetailAddresses {\n    address writer;\n    address holder;\n    address collateralERC;\n    address dataResolver;\n  }\n\n  struct DetailUints {\n    uint256 collateral;\n    uint256 lotSize;\n    uint256 strikePrice;\n    uint256 expiry;\n    uint256 settlementPrice;\n    uint256 reqCollateral;\n    uint8 collateralDecimals;  // to store decimals from ERC-20 contract\n  }\n\n  struct BoolFlags {\n    bool isRequest;\n    bool isEuro;\n    bool isPut;\n    bool hasBeenCleared;  // to flag whether the oracle returned a callback w/ price\n  }\n\n  struct DetailAuction {\n    uint256 startBlock;\n    uint256 expiryBlock;\n    uint256 startPrice;\n    uint256 reservePrice;\n    uint256 timeStep;\n    uint256 priceStep;\n    bool auctionActive;\n    bool satisfyInProgress;  // mutex guard to disallow ending an auction if a transaction to satisfy is in progress\n  }\n\n  struct Piggy {\n    DetailAddresses addresses; //address details\n    DetailUints uintDetails; //number details\n    BoolFlags flags; //parameter switches\n  }\n\n  mapping (address => mapping(address => uint256)) private ERC20balances;\n  mapping (address => uint256[]) private ownedPiggies; //again, public?\n  mapping (uint256 => uint256) private ownedPiggiesIndex;\n  mapping (uint256 => Piggy) private piggies;\n  mapping (uint256 => DetailAuction) private auctions;\n\n  /*\n  add events\n  */\n\n  event CreatePiggy(\n    address[] indexed addresses,\n    uint256[] indexed ints,\n    bool[] indexed bools\n  );\n\n  event TransferPiggy(\n    address indexed from,\n    address indexed to,\n    uint256 indexed tokenId\n  );\n\n  event UpdateRFP(\n    address indexed from,\n    uint256 indexed tokenId,\n    address collateralERC,\n    address dataResolver,\n    uint256 reqCollateral,\n    uint256 lotSize,\n    uint256 strikePrice,\n    uint256 expiry,\n    bool isEuro,\n    bool isPut\n  );\n\n  event ReclaimAndBurn(\n    address indexed from,\n    uint256 indexed tokenId,\n    bool indexed RFP\n  );\n\n  event StartAuction(\n    address indexed from,\n    uint256 indexed tokenId,\n    uint256 startPrice,\n    uint256 reservePrice,\n    uint256 auctionLength,\n    uint256 timeStep,\n    uint256 priceStep\n  );\n\n  event EndAuction(\n    address indexed from,\n    uint256 indexed tokenId,\n    bool indexed RFP\n  );\n\n  event SatisfyAuction(\n    address indexed from,\n    uint256 indexed tokenId,\n    uint256 paidPremium,\n    uint256 change,\n    uint256 auctionPremium\n  );\n\n  event RequestSettlementPrice(\n    address indexed feePayer,\n    uint256 indexed tokenId,\n    uint256 oracleFee,\n    address dataResolver\n  );\n\n  event OracleReturned(\n    address indexed resolver,\n    uint256 indexed tokenId,\n    uint256 indexed price\n  );\n\n  event SettlePiggy(\n   address indexed from,\n   uint256 indexed tokenId,\n   uint256 indexed holderPayout,\n   uint256 writerPayout\n  );\n\n  event ClaimPayout(\n    address indexed from,\n    uint256 indexed amount,\n    address indexed paymentToken\n  );\n\n  /**\n    constructor should throw if various things aren't properly set\n    also should throw if the contract is not delegated an amount of collateral designated\n    in the reference ERC-20 which is >= the collateral value of the piggy\n  */\n  constructor()\n    public\n  {\n    //declarations here\n    owner = msg.sender; //so we can delete if from the testnet\n  }\n\n  /** @notice Create a new token\n      @param _collateralERC The address of the reference ERC-20 token to be used as collateral\n      param _dataResolver The address of a service contract which will return the settlement price\n      @param _collateral The amount of collateral for the option, denominated in units of the token\n       at the `_collateralERC` address\n      @param _lotSize A multiplier on the settlement price used to determine settlement claims\n      @param _strikePrice The strike value of the option, in the same units as the settlement price\n      @param _expiry The block height at which the option will expire\n      @param _isEuro If true, the option can only be settled at or after `_expiry` is reached, else\n       it can be settled at any time\n      @param _isPut If true, the settlement claims will be calculated for a put option; else they\n       will be calculated for a call option\n      @param _isRequest If true, will create the token as an \"RFP\" / request for a particular option\n  */\n  function createPiggy(\n    address _collateralERC,\n    address _dataResolver,\n    uint256 _collateral,\n    uint256 _lotSize,\n    uint256 _strikePrice,\n    uint256 _expiry,\n    bool _isEuro,\n    bool _isPut,\n    bool _isRequest\n  )\n    public\n    returns (bool)\n  {\n    require(\n      _collateralERC != address(0) &&\n      _dataResolver != address(0),\n      \"addresses cannot be zero\"\n    );\n    require(\n      _collateral != 0 &&\n      _lotSize != 0 &&\n      _strikePrice != 0 &&\n      _expiry != 0,\n      \"option parameters cannot be zero\"\n    );\n    // if not an RFP, make sure the collateral can be transferred\n    if (!_isRequest) {\n      bool success = attemptPaymentTransfer(\n        _collateralERC, //_collateralERC\n        msg.sender,\n        address(this),\n        _collateral\n      );\n      require(success, \"Token transfer did not complete\");\n    }\n    // any other checks that need to be performed specifically for RFPs ?\n\n    require(\n      _constructPiggy(\n        _collateralERC,\n        _dataResolver,\n        _collateral,\n        _lotSize,\n        _strikePrice,\n        _expiry,\n        0,\n        _isEuro,\n        _isPut,\n        _isRequest,\n        false\n      ),\n      \"failed to create piggy\"\n    );\n\n\n    return true;\n  }\n\n  function splitPiggy(\n    uint256 _tokenId\n  )\n    public\n    returns (bool)\n  {\n    require(_tokenId != 0, \"token ID cannot be zero\");\n    require(piggies[_tokenId].addresses.writer != address(0), \"token writer cannot be a zero address\");\n    require(!piggies[_tokenId].flags.isRequest, \"token cannot be an RFP\");\n    require(piggies[_tokenId].uintDetails.collateral > 0, \"token collateral must be greater than zero\");\n    require(piggies[_tokenId].addresses.holder == msg.sender, \"only the holder can split\");\n    require(block.number < piggies[_tokenId].uintDetails.expiry, \"cannot split expired token\");\n    require(!auctions[_tokenId].auctionActive, \"cannot split token on auction\");\n    require(!piggies[_tokenId].flags.hasBeenCleared, \"cannot split token that has been cleared\");\n\n    // assuming all checks have passed:\n\n    //calculate collateral split\n    uint256 splitCollateral = piggies[tokenId].uintDetails.collateral.div(2);\n\n    //remove current token ID\n    _removeTokenFromOwnedPiggies(msg.sender, _tokenId); //should this be piggies[_tokenId].holder\n\n    require(\n      _constructPiggy(\n        piggies[_tokenId].addresses.collateralERC,\n        piggies[_tokenId].addresses.dataResolver,\n        piggies[tokenId].uintDetails.collateral.sub(splitCollateral), //accounting for interger division\n        piggies[_tokenId].uintDetails.lotSize,\n        piggies[_tokenId].uintDetails.strikePrice,\n        piggies[_tokenId].uintDetails.expiry,\n        _tokenId,\n        piggies[_tokenId].flags.isEuro,\n        piggies[_tokenId].flags.isPut,\n        false, //piggies[tokenId].isRequest\n        true //split piggy\n      ),\n      \"failed to create a new piggy\"\n    ); //check to make sure this rolls back the reset if it fails\n\n    require(\n      _constructPiggy(\n        piggies[_tokenId].addresses.collateralERC,\n        piggies[_tokenId].addresses.dataResolver,\n        splitCollateral,\n        piggies[_tokenId].uintDetails.lotSize,\n        piggies[_tokenId].uintDetails.strikePrice,\n        piggies[_tokenId].uintDetails.expiry,\n        _tokenId,\n        piggies[_tokenId].flags.isEuro,\n        piggies[_tokenId].flags.isPut,\n        false, //piggies[tokenId].isRequest\n        true //split piggy\n      ),\n      \"failed to make a new piggy\"\n    ); //check to make sure this rolls back the reset if it fails\n\n    //clean up piggyId\n    _resetPiggy(_tokenId);\n\n    return true;\n  }\n\n  function transferFrom(address _from, address _to, uint256 _tokenId)\n    public\n  {\n    require(msg.sender == piggies[_tokenId].addresses.holder, \"msg.sender is not the owner\"); //openzep doesn't do this\n    _internalTransfer(_from, _to, _tokenId);\n  }\n\n  // possibly add function to update reqCollateral if token is an RFP and hasn't been successfully fulfilled\n  // maybe allow all fields of an RFP to be updated ?\n  // this may be more trouble than it is worth. could allow this function to accept a struct, and check if any keys matching fields of Piggy are nonzero, if so, update those ones\n  function updateRFP(\n    uint256 _tokenId,\n    address _collateralERC,\n    address _dataResolver,\n    uint256 _reqCollateral,\n    uint256 _lotSize,\n    uint256 _strikePrice,\n    uint256 _expiry,\n    bool _isEuro,  // MUST be specified\n    bool _isPut    // MUST be specified\n  )\n    public\n    returns (bool)\n  {\n    require(piggies[_tokenId].addresses.holder == msg.sender, \"you must own the RFP to update it\");\n    require(piggies[_tokenId].flags.isRequest, \"you can only update an RFP\");\n    uint256 expiryBlock;\n    if (_collateralERC != address(0)) {\n      piggies[_tokenId].addresses.collateralERC = _collateralERC;\n    }\n    if (_dataResolver != address(0)) {\n      piggies[_tokenId].addresses.dataResolver = _dataResolver;\n    }\n    if (_reqCollateral != 0) {\n      piggies[_tokenId].uintDetails.reqCollateral = _reqCollateral;\n    }\n    if (_lotSize != 0) {\n      piggies[_tokenId].uintDetails.lotSize = _lotSize;\n    }\n    if (_strikePrice != 0 ) {\n      piggies[_tokenId].uintDetails.strikePrice = _strikePrice;\n    }\n    if (_expiry != 0) {\n      // should this redo the expiry calculation? to be consistent w/ how the creation function works ?\n      expiryBlock = _expiry.add(block.number);\n      piggies[_tokenId].uintDetails.expiry = expiryBlock;\n    }\n    piggies[_tokenId].flags.isEuro = _isEuro;\n    piggies[_tokenId].flags.isPut = _isPut;\n\n    emit UpdateRFP(\n      msg.sender,\n      _tokenId,\n      _collateralERC,\n      _dataResolver,\n      _reqCollateral,\n      _lotSize,\n      _strikePrice,\n      expiryBlock,\n      _isEuro,\n      _isPut\n    );\n\n    return true;\n  }\n\n  // this function can be used to burn any token; if it is an option, will return collateral before burning\n  function reclaimAndBurn(uint256 _tokenId)\n    public\n    returns (bool)\n  {\n    require(msg.sender == piggies[_tokenId].addresses.holder, \"you must own the token to burn it\");\n    require(!auctions[_tokenId].auctionActive, \"you cannot burn a token which is on auction\");\n    if (!piggies[_tokenId].flags.isRequest) {\n      require(msg.sender == piggies[_tokenId].addresses.writer, \"you must own the collateral to reclaim it\");\n      // return the collateral to sender\n      PaymentToken(piggies[_tokenId].addresses.collateralERC).transfer(msg.sender, piggies[_tokenId].uintDetails.collateral);\n    }\n    emit ReclaimAndBurn(msg.sender, _tokenId, piggies[_tokenId].flags.isRequest);\n    //remove id from index mapping\n    _removeTokenFromOwnedPiggies(piggies[_tokenId].addresses.holder, _tokenId);\n    // burn the token (zero out storage fields)\n    _resetPiggy(_tokenId);\n    return true;\n  }\n\n  function startAuction(\n    uint256 _tokenId,\n    uint256 _startPrice,\n    uint256 _reservePrice,\n    uint256 _auctionLength,\n    uint256 _timeStep,\n    uint256 _priceStep\n  )\n    external\n    returns (bool)\n  {\n    uint256 _auctionExpiry = block.number.add(_auctionLength);\n    require(piggies[_tokenId].addresses.holder == msg.sender, \"you must own a token to auction it\");\n    require(piggies[_tokenId].uintDetails.expiry > block.number, \"option must not be expired\");\n    require(piggies[_tokenId].uintDetails.expiry > _auctionExpiry, \"auction cannot expire after the option\");\n    require(!piggies[_tokenId].flags.hasBeenCleared, \"option cannot have been cleared\");\n    require(!auctions[_tokenId].auctionActive, \"auction cannot already be running\");\n    // as specified below, this is not needed if we change the function (as I have done) to accept an _auctionLength rather than a direct _auctionExpiry value\n    //require(_auctionExpiry > block.number, \"auction must expire in the future\");  // DO WE WANT TO ALSO ADD A BUFFER HERE? LIKE IT MUST EXPIRE AT LEAST XX BLOCKS IN THE FUTURE?\n    if (piggies[_tokenId].flags.isRequest) {\n      bool success = attemptPaymentTransfer(\n        piggies[_tokenId].addresses.collateralERC,\n        msg.sender,\n        address(this),\n        _reservePrice  // this should be the max the requestor is willing to pay in a reverse dutch auction\n      );\n      require(success, \"transferFrom did not return true\");\n    }\n    // if we made it past the various checks, set the auction metadata up in auctions mapping\n    auctions[_tokenId].startBlock = block.number;\n    auctions[_tokenId].expiryBlock = _auctionExpiry;\n    auctions[_tokenId].startPrice = _startPrice;\n    auctions[_tokenId].reservePrice = _reservePrice;\n    auctions[_tokenId].timeStep = _timeStep;\n    auctions[_tokenId].priceStep = _priceStep;\n    auctions[_tokenId].auctionActive = true;\n\n    emit StartAuction(\n      msg.sender,\n      _tokenId,\n      _startPrice,\n      _reservePrice,\n      _auctionLength,\n      _timeStep,\n      _priceStep\n    );\n\n    return true;\n  }\n\n  function endAuction(uint256 _tokenId)\n    public\n    returns (bool)\n  {\n    require(piggies[_tokenId].addresses.holder == msg.sender, \"you must own a token to auction it\");\n    require(auctions[_tokenId].auctionActive, \"auction must be active to cancel it\");\n    require(!auctions[_tokenId].satisfyInProgress, \"auction cannot be in the process of being satisfied\");  // this should be added to other functions as well\n    if (piggies[_tokenId].flags.isRequest) {\n      // refund the _reservePrice premium\n      uint256 _premiumToReturn = auctions[_tokenId].reservePrice;\n      //auctions[_tokenId].reservePrice = 0;  // this sort of offends my sensibilities because we only zero out one auction param, but it is the only one required to change for this logic to work\n      PaymentToken(piggies[_tokenId].addresses.collateralERC).transfer(msg.sender, _premiumToReturn);\n    }\n    _clearAuctionDetails(_tokenId);\n    emit EndAuction(msg.sender, _tokenId, piggies[_tokenId].flags.isRequest);\n    return true;\n  }\n\n  // consider possible attacks and refactor if needed\n  function satisfyAuction(uint256 _tokenId)\n    public\n    returns (bool)\n  {\n    require(!auctions[_tokenId].satisfyInProgress, \"cannot reenter this function while it is in progress\");\n    require(piggies[_tokenId].addresses.holder != msg.sender, \"cannot satisfy your own auction; use endAuction instead\");\n    require(auctions[_tokenId].auctionActive, \"auction must be active to satisfy it\");\n    // if auction is \"active\" according to state but has expired, change state\n    if (auctions[_tokenId].expiryBlock < block.number) {\n      //auctions[_tokenId].auctionActive = false;  // handled by _clearAuctionDetails now\n      _clearAuctionDetails(_tokenId);\n      return false;\n    }\n    // get linear auction premium; reserve price should be a ceiling or floor depending on whether this is an RFP or an option, respectively\n    uint256 _auctionPremium = getAuctionPrice(_tokenId);\n    // lock mutex\n    auctions[_tokenId].satisfyInProgress = true;\n    if (piggies[_tokenId].flags.isRequest) {\n      // msg.sender needs to delegate reqCollateral\n      bool success = attemptPaymentTransfer(\n        piggies[_tokenId].addresses.collateralERC,\n        msg.sender,\n        address(this),\n        piggies[_tokenId].uintDetails.reqCollateral\n      );\n      if (!success) {\n        auctions[_tokenId].satisfyInProgress = false;\n        return false;\n      }\n      // if the collateral transfer succeeded, collateral gets set to reqCollateral\n      piggies[_tokenId].uintDetails.collateral = piggies[_tokenId].uintDetails.reqCollateral;\n      // calculate adjusted premium (based on reservePrice) + possible change due back to current holder\n      uint256 _change = 0;\n      uint256 _adjPremium = _auctionPremium;\n      if (_adjPremium > auctions[_tokenId].reservePrice) {\n        _adjPremium = auctions[_tokenId].reservePrice;\n      } else {\n        _change = auctions[_tokenId].reservePrice.sub(_adjPremium);\n      }\n      // current holder pays premium (via amount already delegated to this contract in startAuction)\n      PaymentToken(piggies[_tokenId].addresses.collateralERC).transfer(msg.sender, _adjPremium);\n      // current holder receives any change due\n      if (_change > 0) {\n        PaymentToken(piggies[_tokenId].addresses.collateralERC).transfer(piggies[_tokenId].addresses.holder, _change);\n      }\n      // isRequest becomes false\n      piggies[_tokenId].flags.isRequest = false;\n      // msg.sender becomes writer\n      piggies[_tokenId].addresses.writer = msg.sender;\n\n      emit SatisfyAuction(\n        msg.sender,\n        _tokenId,\n        _adjPremium,\n        _change,\n        _auctionPremium\n      );\n\n    } else {\n      // calculate the adjusted premium based on reservePrice\n      uint256 _adjPremium = _auctionPremium;\n      if (_adjPremium < auctions[_tokenId].reservePrice) {\n        _adjPremium = auctions[_tokenId].reservePrice;\n      }\n      // msg.sender pays (adjusted) premium\n      bool success = attemptPaymentTransfer(\n        piggies[_tokenId].addresses.collateralERC,\n        msg.sender,\n        piggies[_tokenId].addresses.holder,  // should the SP contract escrow it first?\n        _adjPremium\n      );\n      if (!success) {\n        auctions[_tokenId].satisfyInProgress = false;\n        return false;\n      }\n      // msg.sender becomes holder\n      _internalTransfer(piggies[_tokenId].addresses.holder, msg.sender, _tokenId);\n\n      emit SatisfyAuction(\n        msg.sender,\n        _tokenId,\n        _adjPremium,\n        0,\n        _auctionPremium\n      );\n\n    }\n    // auction is ended\n    _clearAuctionDetails(_tokenId);\n    // mutex released\n    auctions[_tokenId].satisfyInProgress = false;\n    return true;\n  }\n\n  /** @notice Call the oracle to fetch the settlement price\n      @dev Throws if `_tokenId` is not a valid token.\n       Throws if `_oracle` is not a valid contract address.\n       Throws if `onMarket(_tokenId)` is true.\n       If `isEuro` is true for the specified token, throws if `_expiry` > block.number.\n       If `isEuro` is true for the specified token, throws if `_priceNow` is true. [OR specify that it flips that to false always (?)]\n       If `priceNow` is true, throws if block.number > `_expiry` for the specified token.\n       If `priceNow` is false, throws if block.number < `_expiry` for the specified token.\n       If `priceNow` is true, calls the oracle to request the `_underlyingNow` value for the token.\n       If `priceNow` is false, calls the oracle to request the `_underlyingExpiry` value for the token.\n       Depending on the oracle service implemented, additional state will need to be referenced in\n       order to call the oracle, e.g. an endpoint to fetch. This state handling will need to be\n       managed on an implementation basis for specific oracle services.\n      @param _tokenId The identifier of the token\n      @param _oracleFee Fee paid to oracle service\n        A value needs to be provided for this function to succeed\n        If the oracle doesn't need payment, include a positive garbage value\n      @return The settlement price from the oracle to be used in `settleOption()`\n   */\n  function requestSettlementPrice(uint256 _tokenId, uint256 _oracleFee) // this should be renamed perhaps, s.t. it is obvious that this is the \"clearing phase\"\n    public\n    returns (bool)\n  {\n    require(msg.sender != address(0), \"sender cannot be the zero address\");\n    //what check should be done to check that piggy is active?\n    require(!auctions[_tokenId].auctionActive, \"cannot clear a token while auction is active\");\n    require(!piggies[_tokenId].flags.hasBeenCleared, \"token has already been cleared\");  // this is potentially problematic in the case of \"garbage data\"\n    require(_tokenId != 0, \"_tokenId cannot be zero\");\n    require(_oracleFee != 0, \"oracle fee cannot be zero\");\n    //if Euro require past expiry\n    if (piggies[_tokenId].flags.isEuro) {\n      require(piggies[_tokenId].uintDetails.expiry <= block.number);\n    }\n    //fetch data from dataResolver contract\n    address _dataResolver;\n    if (piggies[_tokenId].flags.isEuro || (piggies[_tokenId].uintDetails.expiry < block.number))\n    {\n      _dataResolver = piggies[_tokenId].addresses.dataResolver; //changed from dataResolverAtExpiry\n    } else {\n      require(msg.sender == piggies[_tokenId].addresses.holder, \"only the holder can settle an American style option before expiry\");\n      _dataResolver = piggies[_tokenId].addresses.dataResolver;\n    }\n    require(_callResolver(_dataResolver, msg.sender, _oracleFee, _tokenId), \"call to resolver did not return true\");\n    return true;\n  }\n\n  function _callback(\n    uint256 _tokenId,\n    uint256 _price\n  )\n    public\n  {\n    address _dataResolver;\n    if (piggies[_tokenId].flags.isEuro || (piggies[_tokenId].uintDetails.expiry < block.number))\n    {\n      _dataResolver = piggies[_tokenId].addresses.dataResolver; // changed from dataResolverAtExpiry\n    } else {\n      _dataResolver = piggies[_tokenId].addresses.dataResolver;\n    }\n    require(msg.sender == _dataResolver, \"resolve address was not correct\"); // MUST restrict a call to only the resolver address\n    piggies[_tokenId].uintDetails.settlementPrice = _price;\n    piggies[_tokenId].flags.hasBeenCleared = true;\n\n    emit OracleReturned(\n      msg.sender,\n      _tokenId,\n      _price\n    );\n\n  }\n\n  /** @notice Calculate the settlement of ownership of option collateral\n      @dev Throws if `_tokenId` is not a valid ERC-59 token.\n       Throws if msg.sender is not one of: seller, owner of `_tokenId`.\n       Throws if `hasSettlementPrice(_tokenId)` is false.\n   */\n   function settlePiggy(uint256 _tokenId)\n     public\n     returns (bool)\n   {\n     require(msg.sender != address(0), \"msg.sender cannot be zero\");\n     require(_tokenId != 0, \"tokenId cannot be zero\");\n     require(piggies[_tokenId].flags.hasBeenCleared, \"piggy has not received an oracle price\");\n\n     uint256 payout;\n\n     if(piggies[_tokenId].flags.isEuro) {\n       require(piggies[_tokenId].uintDetails.expiry <= block.number, \"European option needs to be expired\");\n     }\n     payout = _calculateLongPayout(\n         piggies[_tokenId].flags.isPut,\n         piggies[_tokenId].uintDetails.settlementPrice,\n         piggies[_tokenId].uintDetails.strikePrice,\n         piggies[_tokenId].uintDetails.lotSize,\n         piggies[_tokenId].uintDetails.collateralDecimals\n     );\n\n     // set the balances of the two counterparties based on the payout\n     address _writer = piggies[_tokenId].addresses.writer;\n     address _holder = piggies[_tokenId].addresses.holder;\n     address _collateralERC = piggies[_tokenId].addresses.collateralERC;\n\n     if (payout > piggies[_tokenId].uintDetails.collateral) {\n       payout = piggies[_tokenId].uintDetails.collateral;\n     }\n     ERC20balances[_holder][_collateralERC] = ERC20balances[_holder][_collateralERC].add(payout);\n     ERC20balances[_writer][_collateralERC] = piggies[_tokenId].uintDetails.collateral.sub(payout);\n\n     emit SettlePiggy(\n       msg.sender,\n       _tokenId,\n       payout,\n       piggies[_tokenId].uintDetails.collateral.sub(payout)\n     );\n\n     _removeTokenFromOwnedPiggies(_holder, _tokenId);\n     //clean up piggyId\n     _resetPiggy(_tokenId);\n     return true;\n   }\n\n  // claim payout - pull payment\n  // sends any reference ERC-20 which the _claimant is owed (as a result of an auction or settlement)\n  function claimPayout(address _paymentToken, uint256 _amount)\n    public\n    returns (bool)\n  {\n    require(_amount <= ERC20balances[msg.sender][_paymentToken], \"ERC20 balance is less than requested amount\");\n    ERC20balances[msg.sender][_paymentToken] = ERC20balances[msg.sender][_paymentToken].sub(_amount);\n    //require(token(_stableToken).transfer(msg.sender, balanceOf(msg.sender))), \"Unable to transfer\");\n    (bool success, ) = address(PaymentToken(_paymentToken)).call(\n      abi.encodeWithSignature(\n        \"transfer(address,uint256)\",\n        msg.sender,\n        _amount\n      )\n    );\n    require(success, \"ERC20 token transfer failed\");\n\n    emit ClaimPayout(\n      msg.sender,\n      _amount,\n      _paymentToken\n    );\n\n    return true;\n  }\n\n  /** Helper functions\n  */\n  // helper function to view info from about the piggy outside of the contract\n  function getDetails(uint256 _tokenId)\n    public\n    view\n    returns (Piggy memory)\n  {\n    return piggies[_tokenId];\n  }\n\n  // this is a helper function to allow view of auction details\n  function getAuctionDetails(uint256 _tokenId)\n    public\n    view\n    returns (DetailAuction memory)\n  {\n    return auctions[_tokenId];\n  }\n\n  /** @notice Count the number of ERC-59 tokens owned by a particular address\n      @dev ERC-59 tokens assigned to the zero address are considered invalid, and this\n       function throws for queries about the zero address.\n      @param _owner An address for which to query the balance of ERC-59 tokens\n      @return The number of ERC-59 tokens owned by `_owner`, possibly zero\n   */\n  function getOwnedPiggies(address _owner)\n    public\n    view\n    returns (uint256[] memory)\n  {\n    require(_owner != address(0), \"address cannot be zero\");\n    return ownedPiggies[_owner];\n  }\n\n  function getERC20balance(address _owner, address _erc20)\n    public\n    view\n    returns (uint256)\n  {\n    require(_owner != address(0), \"address cannot be zero\");\n    return ERC20balances[_owner][_erc20];\n  }\n\n  function _constructPiggy(\n    address _collateralERC,\n    address _dataResolver,\n    uint256 _collateral,\n    uint256 _lotSize,\n    uint256 _strikePrice,\n    uint256 _expiry,\n    uint256 _splitTokenId,\n    bool _isEuro,\n    bool _isPut,\n    bool _isRequest,\n    bool _isSplit\n  )\n    internal\n    returns (bool)\n  {\n    // assuming all checks have passed:\n    uint256 tokenExpiry;\n    tokenId = tokenId.add(1);\n\n    // write the values to storage, including _isRequest flag\n    Piggy storage p = piggies[tokenId];\n    p.addresses.holder = msg.sender;\n    p.addresses.collateralERC = _collateralERC;\n    p.addresses.dataResolver = _dataResolver;\n    p.uintDetails.lotSize = _lotSize;\n    p.uintDetails.strikePrice = _strikePrice;\n    p.flags.isEuro = _isEuro;\n    p.flags.isPut = _isPut;\n    p.flags.isRequest = _isRequest;\n\n    // conditional state variable assignments based on _isRequest:\n    if (_isRequest) {\n      tokenExpiry = _expiry.add(block.number);\n      p.uintDetails.reqCollateral = _collateral;\n      p.uintDetails.collateralDecimals = _getERC20Decimals(_collateralERC);\n      p.uintDetails.expiry = tokenExpiry;\n    } else if (_isSplit) {\n      require(_splitTokenId != 0, \"token ID cannot be zero\");\n      require(!piggies[_splitTokenId].flags.isRequest, \"token cannot be an RFP\");\n      require(piggies[_splitTokenId].addresses.holder == msg.sender, \"only the holder can split\");\n      require(block.number < piggies[_splitTokenId].uintDetails.expiry, \"cannot split expired token\");\n      require(!auctions[_splitTokenId].auctionActive, \"cannot split token on auction\");\n      require(!piggies[_splitTokenId].flags.hasBeenCleared, \"cannot split token that has been cleared\");\n      tokenExpiry = piggies[_splitTokenId].uintDetails.expiry;\n      p.addresses.writer = piggies[_splitTokenId].addresses.writer;\n      p.uintDetails.collateral = _collateral;\n      p.uintDetails.collateralDecimals = piggies[_splitTokenId].uintDetails.collateralDecimals;\n      p.uintDetails.expiry = tokenExpiry;\n    } else {\n      require(!_isSplit, \"split cannot be true when creating a new piggy\");\n      tokenExpiry = _expiry.add(block.number);\n      p.addresses.writer = msg.sender;\n      p.uintDetails.collateral = _collateral;\n      p.uintDetails.collateralDecimals = _getERC20Decimals(_collateralERC);\n      p.uintDetails.expiry = tokenExpiry;\n    }\n\n    _addTokenToOwnedPiggies(msg.sender, tokenId);\n\n    address[] memory a = new address[](2);\n    a[0] = msg.sender;\n    a[1] = _dataResolver;\n\n    uint256[] memory i = new uint256[](4);\n    i[0] = tokenId;\n    i[1] = _collateral;\n    i[2] = _lotSize;\n    i[1] = tokenExpiry;\n\n    bool[] memory b = new bool[](3);\n    b[0] = _isEuro;\n    b[1] = _isPut;\n    b[2] = _isRequest;\n\n    emit CreatePiggy(\n      a,\n      i,\n      b\n    );\n\n    return true;\n  }\n\n  // make sure the ERC-20 contract for collateral correctly reports decimals\n  function _getERC20Decimals(address _ERC20)\n    internal\n    returns (uint8)\n  {\n    (bool success, bytes memory _decBytes) = address(PaymentToken(_ERC20)).call(\n        abi.encodeWithSignature(\"decimals()\")\n      );\n     require(success, \"collateral ERC-20 contract does not properly specify decimals\");\n     // convert bytes to uint8:\n     uint256 _ERCdecimals;\n     for(uint256 i=0; i < _decBytes.length; i++) {\n       _ERCdecimals = _ERCdecimals + uint8(_decBytes[i])*(2**(8*(_decBytes.length-(i+1))));\n     }\n     return uint8(_ERCdecimals);\n  }\n\n  // internal transfer for transfers made on behalf of the contract\n  function _internalTransfer(address _from, address _to, uint256 _tokenId)\n    internal\n  {\n    require(_from == piggies[_tokenId].addresses.holder, \"from address is not the owner\");\n    require(_to != address(0), \"to address is zero\");\n    _removeTokenFromOwnedPiggies(_from, _tokenId);\n    _addTokenToOwnedPiggies(_to, _tokenId);\n    piggies[_tokenId].addresses.holder = _to;\n    emit TransferPiggy(_from, _to, _tokenId);\n  }\n\n  function _clearAuctionDetails(uint256 _tokenId)\n    internal\n  {\n    auctions[_tokenId].startBlock = 0;\n    auctions[_tokenId].expiryBlock = 0;\n    auctions[_tokenId].startPrice = 0;\n    auctions[_tokenId].reservePrice = 0;\n    auctions[_tokenId].timeStep = 0;\n    auctions[_tokenId].priceStep = 0;\n    auctions[_tokenId].auctionActive = false;\n  }\n\n  // calculate the price for satisfaction of an auction\n  // this is an interpolated linear price based on the supplied auction parameters at a resolution of 1 block\n  function getAuctionPrice(uint256 _tokenId)\n    internal\n    view\n    returns (uint256)\n  {\n\n    uint256 _pStart = auctions[_tokenId].startPrice;\n    uint256 _pDelta = (block.number).sub(auctions[_tokenId].startBlock).mul(auctions[_tokenId].priceStep).div(auctions[_tokenId].timeStep);\n    if (piggies[_tokenId].flags.isRequest) {\n      return _pStart.add(_pDelta);\n    } else {\n      return (_pStart.sub(_pDelta));\n    }\n  }\n\n  function _callResolver(address _dataResolver, address _feePayer, uint256 _oracleFee, uint256 _tokenId)\n    internal\n    returns (bool)\n  {\n    (bool success, ) = address(_dataResolver).call(\n      abi.encodeWithSignature(\"fetchData(address,uint256,uint256)\", _feePayer, _oracleFee, _tokenId)\n    );\n    require(success, \"fetch success did not return true\");\n\n    emit RequestSettlementPrice(\n      _feePayer,\n      _tokenId,\n      _oracleFee,\n      _dataResolver\n    );\n\n    return true;\n  }\n\n  function _calculateLongPayout(\n    bool _isPut,\n    uint256 _exercisePrice,\n    uint256 _strikePrice,\n    uint256 _lotSize,\n    uint8 _decimals\n  )\n    internal\n    pure\n    returns (uint256 _payout)\n  {\n    if (_isPut && (_strikePrice > _exercisePrice)) {\n      _payout = _strikePrice.sub(_exercisePrice);\n    }\n    if (!_isPut && (_exercisePrice > _strikePrice)) {\n      _payout = _exercisePrice.sub(_strikePrice);\n    }\n    _payout = _payout.mul(10**uint256(_decimals)).mul(_lotSize).div(100);\n    return _payout;\n  }\n\n  // abstract ERC-20 TransferFrom attepmts\n  function attemptPaymentTransfer(address _ERC20, address _from, address _to, uint256 _amount)\n    private\n    returns (bool)\n  {\n    (bool success, ) = address(PaymentToken(_ERC20)).call(\n      abi.encodeWithSignature(\n        \"transferFrom(address,address,uint256)\",\n        _from,\n        _to,\n        _amount\n      )\n    );\n    return success;\n  }\n\n  function _addTokenToOwnedPiggies(address _to, uint256 _tokenId)\n    private\n  {\n    ownedPiggiesIndex[_tokenId] = ownedPiggies[_to].length;\n    ownedPiggies[_to].push(_tokenId);\n  }\n\n  function _removeTokenFromOwnedPiggies(address _from, uint256 _tokenId)\n    private\n  {\n    uint256 lastTokenIndex = ownedPiggies[_from].length.sub(1);\n    uint256 tokenIndex = ownedPiggiesIndex[_tokenId];\n\n    if (tokenIndex != lastTokenIndex) {\n      uint256 lastTokenId = ownedPiggies[_from][lastTokenIndex];\n      ownedPiggies[_from][tokenIndex] = lastTokenId;\n      ownedPiggiesIndex[lastTokenId] = tokenIndex;\n    }\n    ownedPiggies[_from].length--;\n  }\n\n  function _resetPiggy(uint256 _tokenId)\n    private\n  {\n    piggies[_tokenId].addresses.writer = address(0);\n    piggies[_tokenId].addresses.holder = address(0);\n    piggies[_tokenId].addresses.collateralERC = address(0);\n    piggies[_tokenId].addresses.dataResolver = address(0);\n    piggies[_tokenId].uintDetails.collateral = 0;\n    piggies[_tokenId].uintDetails.lotSize = 0;\n    piggies[_tokenId].uintDetails.strikePrice = 0;\n    piggies[_tokenId].uintDetails.expiry = 0;\n    piggies[_tokenId].uintDetails.settlementPrice = 0;\n    piggies[_tokenId].uintDetails.reqCollateral = 0;\n    piggies[_tokenId].uintDetails.collateralDecimals = 0;\n    piggies[_tokenId].flags.isRequest = false;\n    piggies[_tokenId].flags.isEuro = false;\n    piggies[_tokenId].flags.isPut = false;\n    piggies[_tokenId].flags.hasBeenCleared = false;\n  }\n\n  function kill()\n    public\n  {\n    require(msg.sender == owner);\n    selfdestruct(owner);\n  }\n}\n",
  "sourcePath": "/Users/talgya/DAPPS/smartbricks/truffle/contracts/SmartBricks.sol",
  "compiler": {
    "name": "solc",
    "version": "0.5.11+commit.c082d0b4.Emscripten.clang"
  },
  "schemaVersion": "3.0.11",
  "updatedAt": "2019-10-28T16:57:33.975Z",
  "devdoc": {
    "methods": {
      "createPiggy(address,address,uint256,uint256,uint256,uint256,bool,bool,bool)": {
        "params": {
          "_collateral": "The amount of collateral for the option, denominated in units of the token at the `_collateralERC` address",
          "_collateralERC": "The address of the reference ERC-20 token to be used as collateral param _dataResolver The address of a service contract which will return the settlement price",
          "_expiry": "The block height at which the option will expire",
          "_isEuro": "If true, the option can only be settled at or after `_expiry` is reached, else it can be settled at any time",
          "_isPut": "If true, the settlement claims will be calculated for a put option; else they will be calculated for a call option",
          "_isRequest": "If true, will create the token as an \"RFP\" / request for a particular option",
          "_lotSize": "A multiplier on the settlement price used to determine settlement claims",
          "_strikePrice": "The strike value of the option, in the same units as the settlement price"
        }
      },
      "getOwnedPiggies(address)": {
        "details": "ERC-59 tokens assigned to the zero address are considered invalid, and this function throws for queries about the zero address.",
        "params": {
          "_owner": "An address for which to query the balance of ERC-59 tokens"
        },
        "return": "The number of ERC-59 tokens owned by `_owner`, possibly zero"
      },
      "requestSettlementPrice(uint256,uint256)": {
        "details": "Throws if `_tokenId` is not a valid token. Throws if `_oracle` is not a valid contract address. Throws if `onMarket(_tokenId)` is true. If `isEuro` is true for the specified token, throws if `_expiry` > block.number. If `isEuro` is true for the specified token, throws if `_priceNow` is true. [OR specify that it flips that to false always (?)] If `priceNow` is true, throws if block.number > `_expiry` for the specified token. If `priceNow` is false, throws if block.number < `_expiry` for the specified token. If `priceNow` is true, calls the oracle to request the `_underlyingNow` value for the token. If `priceNow` is false, calls the oracle to request the `_underlyingExpiry` value for the token. Depending on the oracle service implemented, additional state will need to be referenced in order to call the oracle, e.g. an endpoint to fetch. This state handling will need to be managed on an implementation basis for specific oracle services.",
        "params": {
          "_oracleFee": "Fee paid to oracle service A value needs to be provided for this function to succeed If the oracle doesn't need payment, include a positive garbage value",
          "_tokenId": "The identifier of the token"
        },
        "return": "The settlement price from the oracle to be used in `settleOption()`"
      },
      "settlePiggy(uint256)": {
        "details": "Throws if `_tokenId` is not a valid ERC-59 token. Throws if msg.sender is not one of: seller, owner of `_tokenId`. Throws if `hasSettlementPrice(_tokenId)` is false."
      },
      "supportsInterface(bytes4)": {
        "details": "implement supportsInterface(bytes4) using a lookup table"
      }
    },
    "title": "SmartPiggies: A Smart Option Standard"
  },
  "userdoc": {
    "methods": {
      "constructor": "constructor should throw if various things aren't properly set also should throw if the contract is not delegated an amount of collateral designated in the reference ERC-20 which is >= the collateral value of the piggy",
      "createPiggy(address,address,uint256,uint256,uint256,uint256,bool,bool,bool)": {
        "notice": "Create a new token"
      },
      "getDetails(uint256)": {
        "notice": "Helper functions"
      },
      "getOwnedPiggies(address)": {
        "notice": "Count the number of ERC-59 tokens owned by a particular address"
      },
      "requestSettlementPrice(uint256,uint256)": {
        "notice": "Call the oracle to fetch the settlement price"
      },
      "settlePiggy(uint256)": {
        "notice": "Calculate the settlement of ownership of option collateral"
      }
    }
  }
}